:100000000C942A000C9447000C9447000C94470071
:100010000C9447000C9447000C9447000C94470044
:100020000C9447000C9449000C9447000C94730006
:100030000C9447000C9447000C9447000C94470024
:100040000C9447000C9447000C9447000C94470014
:100050000C94470011241FBECFE5D4E0DEBFCDBF16
:1000600012E0A0E6B0E0E4E1FAE002C005900D92F3
:10007000AC37B107D9F712E0ACE7B2E001C01D928E
:10008000A63AB107E1F70E9494030C9408050C947A
:1000900000001F920F920FB60F9211248F939F931F
:1000A00080917E0290917F02019690937F028093CF
:1000B0007E0280917E0290917F02C29768F010923A
:1000C0007F0210927E0210928D0210928B0210928B
:1000D0008C0281E0809380029F918F910F900FBEE0
:1000E0000F901F9018951F920F920FB60F92112428
:1000F0002F938F939F93EF93FF932CB110927F02D6
:1001000010927E0280918D02882391F5223651F162
:100110002336C1F02334B1F02E36A1F02F3691F002
:10012000293481F0293671F02A3661F02B3651F0EE
:10013000243741F0253731F0273721F0263711F0E9
:100140002D3621F481E080937B0210C0213611F41A
:1001500084E009C0263511F486E005C0243611F08C
:10016000253631F482E080937B0281E080938D021A
:1001700080918D028823C1F0E0918B02F0E0E75678
:10018000FD4F208380918B028F5F80938B02909133
:100190008B0280917B02981738F010928D0210929A
:1001A0008B0281E080938C02283731F410928D020B
:1001B00010928B0210928C02FF91EF919F918F9180
:1001C0002F910F900FBE0F901F901895E199FECFC1
:1001D0009FBB8EBBE09A8DB30895E199FECF9FBB84
:1001E0008EBB6DBBE29AE19A08950895EF92FF925B
:1001F0000F931F93DF93CF9300D0CDB7DEB78983E2
:100200006A83C49807E010E07E010894E11CF11CA9
:10021000F701808190E0002E02C0959587950A94A1
:10022000E2F780FF02C0C59A01C0C598C7980E9436
:10023000F500C79A0E94F50001501040FFEF0F3FF4
:100240001F0731F707E010E082E0E82EF12CEC0EFA
:10025000FD1EF701808190E0002E02C095958795E4
:100260000A94E2F780FF02C0C59A01C0C598C798FA
:100270000E94F500C79A0E94F50001501040FFEF60
:100280000F3F1F0731F70E94F500C49A0F900F909F
:10029000CF91DF911F910F91FF90EF90089580EB28
:1002A00087BB80E58DB90895C4988FB9779BFECF41
:1002B0006FB9779BFECFC49A0895C4988FB9779B86
:1002C000FECFC49A089519BE1DBC1CBC84E08EBD2F
:1002D00081E089BF12BE85E083BF08951EBC1DBCAE
:1002E0001CBC8091790290917A0297BD86BD1BBC9F
:1002F0001ABC19BC18BC82E08FBD89E18EBD08957F
:1003000010928C0280919902813659F580919C025D
:1003100020919B0240919A0290E0805D94416AE0B6
:10032000269F90011124820F931F24E6429FA00173
:100330001124840F951F90937D0280937C02813A53
:10034000910530F080EA90E090937D0280937C02EA
:1003500080E260917C020E94F60084E260917C025F
:1003600013C180919902863509F5F89460919A023B
:1003700082E090E00E94ED0060919B0283E090E0BB
:100380000E94ED0060919C0284E090E00E94ED00EC
:1003900060919D0285E090E00E94ED0060919E02D8
:1003A00086E090E00E94ED00789408958091990293
:1003B000833609F4B8C1809199028334C1F580E491
:1003C00090E00E9451048EE892E068E070E00E94A4
:1003D000230481E490E00E94510482E490E00E94B2
:1003E000510483E490E00E9451040E94E20490E0F2
:1003F0000E94340480917C0290917D020E9434041A
:100400000E94D70490E00E9434040E94BD0490E052
:100410000E9434040E94CA0490E00E9434040E94A6
:10042000A30490E00E9434040E94F5000895809196
:100430009902863709F08EC080E690E00E9455044C
:1004400080E090E00E94340487E090E00E94340451
:100450008091750290E00E9451048091760290E0B4
:100460000E94510485E690E00E94550489E990E0DD
:100470000E9455048EED90E00E9455048FE091E0BB
:100480000E94550480E491E00E94550486E591E0C5
:100490000E9455048CE691E00E94550482E891E0A8
:1004A0000E94550488E991E00E9455048EEA91E08B
:1004B0000E9455048EED91E00E9455048FEF91E06B
:1004C0000E94550483E192E00E94550487E292E085
:1004D0000E9455048BE492E00E945504E199FECFFE
:1004E00082E090E09FBB8EBBE09A8DB390E00E94CB
:1004F0005104E199FECF83E090E09FBB8EBBE09A70
:100500008DB390E00E945104E199FECF84E090E029
:100510009FBB8EBBE09A8DB390E00E945104E1999D
:10052000FECF85E090E09FBB8EBBE09A8DB390E05C
:100530000E945104E199FECF86E090E09FBB8EBB04
:10054000E09A8DB390E00E9451048FE692E00E9401
:100550005504089580919902843651F480919A024D
:100560000E94990490E0845B90400E945104089599
:1005700080919902853659F460919A0280E20E9436
:10058000F60060919A0284E20E94F600089580913C
:100590009902893679F480918E02882329F4A99AE8
:1005A00081E080938E02089580918E02813009F05F
:1005B000BAC004C080919902893421F4A99810929C
:1005C0008E020895809199028A3661F480918F029B
:1005D000882309F468C080918F02813009F0A3C09C
:1005E000AA980DC0809199028B3699F4809190025F
:1005F000882341F4AA98AB9A81E0809390021092EC
:100600008F02089580919002813009F08CC0AB98E0
:100610004FC080919902843791F480919102882390
:1006200029F4A89A81E08093910208958091910223
:10063000813009F078C0A8981092910208958091B5
:100640009902853791F480919202882329F4AC9A1B
:1006500081E080939202089580919202813009F0A6
:1006600062C0AC98109292020895809199028737E7
:1006700091F480919302882329F4AD9A81E08093CC
:100680009302089580919302813009F04CC0AD9897
:10069000109293020895809199028D36B9F4809159
:1006A0008F02882341F4AB98AA9A81E080938F024D
:1006B00010929002089580918F028130A1F5AA983E
:1006C000AB9A10928F0280939002089580919902C4
:1006D0008E3699F4809183029091840201969093D2
:1006E000840280938302855F9140ECF084EF91E077
:1006F00090938402809383020895809199028F36AB
:1007000091F48091830290918402019790938402E6
:10071000809383028C509E4F34F48CE09EEF909334
:100720008402809383020895FF920F931F9388EFB2
:1007300081BB12BA9FEF94BB15BA80EB87BB98BB05
:100740001ABA89E190E00E94190480E260E00E94F8
:10075000F60084E260E00E94F6000E946B040E94B2
:1007600063010E946E01789492E0F92E02E212E891
:100770000E94F50080918C02813021F410928C024D
:100780000E94800180918E02813019F4AD98109200
:10079000930280918002813041F410928002AA98E5
:1007A000AB9810928F0210929002209183023091A8
:1007B000840222303105C4F0809187029091880232
:1007C0008217930714F4019601C001979093880251
:1007D000809387021FBD80918702909188029BBD04
:1007E0008ABD19BC18BCC4CF8FEF2F3F3807DCF48B
:1007F00080918702909188022817390714F4019795
:1008000001C0019690938802809387020FBD80916A
:10081000870290918802909581959F4F99BD88BDE0
:100820001BBC1ABCA5CF1BBC1ABC19BC18BCFFBC96
:100830009FCF90BD89B988E98AB9089590BD89B9DB
:1008400088E18AB9089520E030E070E009C0FC0139
:10085000E20FF31FE0815D9BFECFECB92F5F3F4FAE
:1008600026173707A4F30895282F64E60E94FC0496
:10087000392F822F0E94FC04805D5D9BFECF8CB9D6
:10088000832F6AE00E94FC04282F205D832F0E94A2
:10089000FC045D9BFECF2CB95D9BFECF905D9CB9A7
:1008A00008955D9BFECF8CB90895FC0104C05D9B4B
:1008B000FECF8CB9319680818823C9F75D9BFECF2E
:1008C0008AE08CB95D9BFECF8DE08CB908955F9B6B
:1008D000FECF8CB10895379A369A359880B78F77C6
:1008E00080BF80B78F7B80BF80B78F7D80BF3298FD
:1008F000319830983E9A3D9A3C983B983A9839986E
:1009000038980895379A369A359A80B78F7780BF8E
:1009100080B78F7B80BF80B78F7D80BF3298319842
:1009200030983E9A3D983C983B983A983998389838
:10093000089517B8877087B93D9A349A369A349BD0
:10094000FECF85B10895349BFECF3E9A38983998F2
:100950003A9A3D9A349A369A349BFECF85B10895DF
:10096000349BFECF3E9A389839983A983D9A349AFB
:10097000369A349BFECF85B10895349BFECF3E9AC4
:10098000389A39983A983D9A349A369A349BFECFE1
:1009900085B10895349BFECF3E9A3898399A3A989B
:1009A0003D9A349A369A349BFECF85B108953E9A8B
:1009B000389A399A3A983D9A349A369A349BFECFAF
:1009C00085B108953E9A389A39983A9A3D9A349A60
:1009D000369A349BFECF85B1089517B8877087B9D2
:1009E0003D98349A349BFECF85B10E94340484B183
:1009F0000E94340485B10895991B79E004C0991FC1
:100A0000961708F0961B881F7A95C9F78095089568
:040A1000F894FFCF88
:100A14005665723A004441435F434F4D4D414E4445
:100A24000909276127096120666F6C6C6F7765641B
:100A340020627920336E756D6265727320666F7201
:100A44002074686520444143005455524E5F4F4E14
:100A54005F4F46465F50494E20092762270955419A
:100A640052545F52785F4275665B315D3D4F4E2F45
:100A74004F464620554152545F52785F4275665B3B
:100A8400325D3D50494E204E554D4245520052452F
:100A94005455524E5F56414C554553200927632700
:100AA4000952657475726E2076616C756520737475
:100AB4006F72656420696E204275666665720047D0
:100AC40045545F4144435F56414C554520092764D2
:100AD400270952657475726E204144432076616C17
:100AE4007565206F6E2070696E20676976656E008B
:100AF400544F4747454C452050494E3120092769FA
:100B0400270950433000544F4747454C452050492E
:100B14004E322009276A270950443500544F47476D
:100B2400454C452050494E332009276B2709504432
:100B34003600544F4747454C452050494E34200910
:100B44002774270950443300544F4747454C4520E8
:100B540050494E3520092775270950443700474529
:100B6400545F56455253494F4E20090927762709A9
:100B740052657475726E2056657273696F6E206E5D
:100B840072206F66206669726D7761726500544FDA
:100B940047474C452050494E3220414E442054553D
:100BA400524E204F462050494E3320276D2700498E
:100BB4004E435F4441435F56414C5545322009271B
:100BC4006827004445435F4441435F56414C5545C3
:100BD400322009276C2700494E435F50574D2009A6
:100BE4000909276E2720696E637265617365207039
:100BF400756C7365207769647468004445435F507D
:100C0400574D20090909276F2720646563726561C0
:100C140073652070756C7365207769647468002A45
:0C0C24002A2A2A2A000A0DC800900104A8
:00000001FF
