:100000000C942A000C946F000C94AD000C944700E3
:100010000C9447000C9447000C9447000C94470044
:100020000C9447000C9449000C9447000C94330145
:100030000C9447000C9447000C9447000C94470024
:100040000C9447000C9447000C9447000C94470014
:100050000C94470011241FBECFE5D4E0DEBFCDBF16
:1000600010E0A0E6B0E0E6E7FAE002C005900D92ED
:10007000AA36B107D9F710E0AAE6B0E001C01D9298
:10008000AC39B107E1F70E9435040C9439050C94A2
:1000900000001F920F920FB60F9211248F939F931F
:1000A00080916C0090916D00019690936D0080930B
:1000B0006C008436910560F01BBC1ABC10926D0078
:1000C00010926C00109272001092700010927100E9
:1000D0009F918F910F900FBE0F901F9018951F92B8
:1000E0000F920FB60F9211248F939F93EF93FF936C
:1000F00080917B00813069F482B780937300109205
:10010000740012BE8093820010927B0085B78E7FB0
:100110001AC08823C9F492B79093750010927600A4
:1001200080918900E82FF0E0E358FF4F90838F5FC4
:1001300080938900853010F01092890081E08093CF
:100140007B0085B7816085BFFF91EF919F918F9173
:100150000F900FBE0F901F9018951F920F920FB621
:100160000F9211242F933F938F939F93EF93FF93BD
:1001700080917C00813079F48CB59DB590937800A6
:10018000809377001DBC1CBC8093880010927C007B
:1001900085B78B7F1BC08823D1F42CB53DB5309338
:1001A0007A002093790080918A00E82FF0E0ED57E3
:1001B000FF4F20838F5F80938A00853010F010926C
:1001C0008A0081E080937C0085B7846085BFFF91C1
:1001D000EF919F918F913F912F910F900FBE0F90B4
:1001E0001F9018950895DF93CF9300D0CDB7DEB759
:1001F00089836A83C49827E030E0FE0131968081CC
:1002000090E0022E02C0959587950A94E2F780FF50
:1002100002C0C59A01C0C598C798C79A21503040FE
:100220008FEF2F3F380759F727E030E0FE01329675
:10023000808190E0022E02C0959587950A94E2F79E
:1002400080FF02C0C59A01C0C598C798C79A2150BF
:1002500030408FEF2F3F380759F7C49A0F900F9017
:10026000CF91DF9108951F920F920FB60F92112434
:100270001F932F933F934F935F936F937F938F932E
:100280009F93AF93BF93EF93FF931CB110926D00B8
:1002900010926C0080917200882309F07CC01236A5
:1002A00001F11E3631F481E0809364008093720086
:1002B00072C01F36C1F31936B1F31A36A1F31B36DB
:1002C00091F3143781F3153771F31D3661F311364D
:1002D00011F484E007C0133631F3143611F01536EB
:1002E00029F482E08093640081E0E0CF183621F0A9
:1002F0001C3669F0163649F480916A0090916B00C3
:10030000853F910560F50A963DC0173649F4809106
:100310006A0090916B008A30910570F10A9732C0A3
:10032000103749F480916A0090916B008B3F9105E2
:10033000B0F4059627C0113749F480916A00909176
:100340006B0085309105C0F005971CC0123761F431
:1003500080916A0090916B008F3F910518F08FEFAC
:1003600090E010C001960EC01337A9F480916A0086
:1003700090916B00009729F410926B0010926A0024
:1003800005C0019790936B0080936A0084E26091AE
:100390006A000E94F300809172008823A9F0809186
:1003A0007000E82FF0E0E157FF4F10838F5F8093DC
:1003B000700090916400891738F0109272001092CA
:1003C000700081E080937100183731F41092720050
:1003D0001092700010927100FF91EF91BF91AF9158
:1003E0009F918F917F916F915F914F913F912F914D
:1003F0001F910F900FBE0F901F90189580EB87BB39
:1004000080E58DB90895C4988FB9779BFECF6FB9F9
:10041000779BFECFC49A0895C4988FB9779BFECF7F
:10042000C49A08958FE085BF80EC8BBF089519BEF4
:100430001DBC1CBC84E08EBD81E089BF12BE85E07E
:1004400083BF08951EBC1DBC1CBC809162009091AE
:10045000630097BD86BD80916E0090916F009BBD3B
:100460008ABD82E88FBD8AE18EBD08950F931F93E8
:10047000CF93DF931092710080918F008136E1F469
:100480006091920070E0605D7441809191002AE07B
:10049000829FC0011124680F791F8091900024E68B
:1004A000829FC0011124680F791F70936B006093C5
:1004B0006A0084E20E94F30080918F00833609F085
:1004C000ECC080E390E00E94110580E390E00E9480
:1004D000110580916500882319F481E390E002C042
:1004E00080E390E00E94110580E390E00E941105F6
:1004F00080E390E00E94110580916600882319F442
:1005000081E390E002C080E390E00E94110580E367
:1005100090E00E94110580E390E00E941105809117
:100520006700882319F481E390E002C080E390E043
:100530000E94110580E390E00E94110580E390E0A5
:100540000E94110580916800882319F481E390E0EE
:1005500002C080E390E00E94110580E390E00E94D9
:10056000110580E390E00E941105809169008823C5
:1005700019F481E390E002C080E390E00E9411054D
:1005800080916A0090916B000E94F40404E910E0ED
:10059000E8010E949D04899380E0CC39D807C9F70F
:1005A000289720E030E040E050E08991280F311D8D
:1005B000411D511DE0E0CC39DE07B9F773E05695D7
:1005C0004795379527957A95D1F7822F90E00E942D
:1005D000F40428970E94A7048993F0E0CC39DF0740
:1005E000C9F7289720E030E040E050E08991280FDB
:1005F000311D411D511D80E0CC39D807B9F763E0AA
:1006000056954795379527956A95D1F7822F90E0B3
:100610000E94F40428970E94B1048993E0E0CC3949
:10062000DE07C9F7289720E030E040E050E08991EC
:10063000280F311D411D511DF0E0CC39DF07B9F7FE
:1006400093E056954795379527959A95D1F7822F40
:1006500090E00E94F40428970E94C504899380E0EA
:10066000CC39D807C9F720E030E040E050E0F8018D
:1006700081918F01280F311D411D511DF0E00C3972
:100680001F07A9F783E056954795379527958A95D3
:10069000D1F7822F90E00E94F40480918F0084367D
:1006A00049F4809190000E94940490E0845B904013
:1006B0000E94110580918F00853629F484E26091B3
:1006C00090000E94F30080918F00893609F452C097
:1006D0008A3631F480916600813009F065C036C0F9
:1006E0008B3651F480916700813009F070C0959885
:1006F000969A109267005DC0843781F480916800FB
:10070000813021F4939A10926800AAC0882309F0DE
:10071000A7C0939881E080936800A2C0853781F4D8
:1007200080916900813021F4979A1092690098C0F5
:10073000882309F095C0979881E08093690090C064
:100740008D3691F480916600813029F49698959ABF
:100750001092660041C0882309F082C09598969A4D
:1007600081E08093660030C08236C9F580919000A8
:10077000813381F480916500813021F4949A109244
:1007800065006EC0882309F06BC0949881E0809367
:10079000650066C0823381F480916600813021F467
:1007A000959A109266005CC0882309F059C095980C
:1007B00081E08093660054C0833309F051C080917A
:1007C0006700813021F4969A1092670049C088230F
:1007D00009F046C0969881E08093670041C08E364C
:1007E000D9F4C0916E00D0916F00E0916200F09159
:1007F0006300CF016FEF70E00E9425059B01CF01E0
:10080000861B970BC817D90708F52C0F3D1F30938F
:100810006F0020936E001EC08F3611F5E0916E00C0
:10082000F0916F0080916200909163006FEF70E033
:100830000E942505CB010A968E179F0728F010927B
:100840006F0010926E0006C0E61BF70BF0936F006E
:10085000E0936E0080916E0090916F009BBD8ABD09
:10086000DF91CF911F910F91089511BA88EF81BB4D
:1008700012BA80EB87BB8FEF88BB1ABA89E190E090
:100880000E94EA0480E060E00E94F3000E94680495
:100890008FE085BF80EC8BBF19BE1DBC1CBC84E003
:1008A0008EBD81E089BF12BE85E083BF78940DC004
:1008B000019627E0803D9207DCF380917100813042
:1008C00021F4109271000E94360280E090E0F1CF96
:1008D000379A369A359A80B78F7780BF80B78F7BEB
:1008E00080BF80B78F7D80BF3298319830983D9A15
:1008F0003C983B983A98399838980895379A369AA0
:10090000359A80B78F7780BF80B78F7B80BF80B7E5
:100910008F7D80BF3298319830983D983C983B98B5
:100920003A9839983898089517B8877087B93D9ADA
:10093000349A349BFECF85B1089517B8389839980A
:100940003A983D9A349A349BFECF85B1089517B8F2
:10095000389A39983A983D9A349A349BFECF85B1AB
:10096000089517B83898399A3A983D9A349A349B32
:10097000FECF85B1089517B8389A399A3A983D9ABA
:10098000349A349BFECF85B1089517B838983998BA
:100990003A9A3D9A349A349BFECF85B1089517B8A0
:1009A000389A39983A9A3D9A349A349BFECF85B159
:1009B000089517B8877087B93D98349A349BFECF55
:1009C00085B190E00E94F40484B190E00E94F404A8
:1009D00085B1089590BD89B988E98AB9089590BD17
:1009E00089B988E18AB90895282F64E60E9419051B
:1009F000392F822F0E941905805D5D9BFECF8CB937
:100A0000832F6AE00E941905292F832F0E94190560
:100A1000805D5D9BFECF8CB95D9BFECF205D2CB9C8
:100A200008955D9BFECF8CB908955F9BFECF8CB17E
:100A30000895991B79E004C0991F961708F0961B3A
:100A4000881F7A95C9F780950895AA1BBB1B51E1B1
:100A500007C0AA1FBB1FA617B70710F0A61BB70B2E
:100A6000881F991F5A95A9F780959095BC01CD01D3
:100A70000895F894FFCF0A0DE20404010101010179
:100A8000FFFFFFFFFFFFFFFFFFFFFFFFFFFFFFFF76
:100A9000FFFFFFFFFFFFFFFFFFFFFFFFFFFFFFFF66
:100AA000FFFFFFFFFFFFFFFFFFFFFFFFFFFFFFFF56
:100AB000FFFFFFFFFFFFFFFFFFFFFFFFFFFFFFFF46
:00000001FF
