:100000000C942A000C946F000C94AD000C944700E3
:100010000C9447000C9447000C9447000C94470044
:100020000C9447000C9449000C9447000C944C012C
:100030000C9447000C9447000C9447000C94470024
:100040000C9447000C9447000C9447000C94470014
:100050000C94470011241FBECFE5D4E0DEBFCDBF16
:1000600013E0A0E6B0E0E8EBFAE002C005900D92E4
:10007000A03CB107D9F713E0A0ECB3E001C01D929A
:10008000A23FB107E1F70E9454040C945A050C9466
:1000900000001F920F920FB60F9211248F939F931F
:1000A0008091C2039091C30301969093C303809300
:1000B000C2038436910560F01BBC1ABC1092C303C6
:1000C0001092C2031092C8031092C6031092C70385
:1000D0009F918F910F900FBE0F901F9018951F92B8
:1000E0000F920FB60F9211248F939F93EF93FF936C
:1000F0008091D103813069F482B78093C903109253
:10010000CA0312BE8093D8031092D10385B78E7FA5
:100110001AC08823C9F492B79093CB031092CC03F2
:100120008091DF03E82FF0E0ED52FC4F90838F5F6A
:100130008093DF03853010F01092DF0381E080931D
:10014000D10385B7816085BFFF91EF919F918F911A
:100150000F900FBE0F901F9018951F920F920FB621
:100160000F9211242F933F938F939F93EF93FF93BD
:100170008091D203813079F48CB59DB59093CE03F4
:100180008093CD031DBC1CBC8093DE031092D20370
:1001900085B78B7F1BC08823D1F42CB53DB5309338
:1001A000D0032093CF038091E003E82FF0E0E752E3
:1001B000FC4F20838F5F8093E003853010F0109216
:1001C000E00381E08093D20385B7846085BFFF910F
:1001D000EF919F918F913F912F910F900FBE0F90B4
:1001E0001F9018950895EF92FF920F931F93DF933E
:1001F000CF9300D0CDB7DEB789836A83C49807E078
:1002000010E07E010894E11CF11CF701808190E070
:10021000002E02C0959587950A94E2F780FF02C0F0
:10022000C59A01C0C598C7980E94F200C79A0E945B
:10023000F20001501040FFEF0F3F1F0731F707E0BA
:1002400010E082E0E82EF12CEC0EFD1EF70180811B
:1002500090E0002E02C0959587950A94E2F780FF02
:1002600002C0C59A01C0C598C7980E94F200C79AFB
:100270000E94F20001501040FFEF0F3F1F0731F7BF
:100280000E94F200C49A0F900F90CF91DF911F91BE
:100290000F91FF90EF9008951F920F920FB60F925B
:1002A00011241F932F933F934F935F936F937F93EB
:1002B0008F939F93AF93BF93EF93FF931CB11092D3
:1002C000C3031092C2038091C803882309F07EC043
:1002D000123611F11E3631F481E08093B903809318
:1002E000C80374C01F36C1F31936B1F31A36A1F32F
:1002F0001B3691F3143781F3153771F3163761F319
:100300001D3651F3113611F484E007C0133621F382
:10031000143611F0153629F482E08093B90381E098
:10032000DECF183621F01C3669F0163649F480917C
:10033000C0039091C103853F910560F50A963DC0C9
:10034000173649F48091C0039091C1038A3091051A
:1003500070F10A9732C0103749F48091C003909130
:10036000C1038B3F9105B0F4059627C0113749F4BE
:100370008091C0039091C10385309105C0F005972D
:100380001CC0123761F48091C0039091C1038F3F6C
:10039000910518F08FEF90E010C001960EC0133752
:1003A000A9F48091C0039091C103009729F41092A1
:1003B000C1031092C00305C001979093C1038093BD
:1003C000C00384E26091C0030E94F3008091C803DF
:1003D0008823A9F08091C603E82FF0E0EB51FC4F91
:1003E00010838F5F8093C6039091B903891738F00B
:1003F0001092C8031092C60381E08093C703183798
:1004000031F41092C8031092C6031092C703FF91F3
:10041000EF91BF91AF919F918F917F916F915F917C
:100420004F913F912F911F910F900FBE0F901F90F2
:10043000189580EB87BB80E58DB90895C4988FB976
:10044000779BFECF6FB9779BFECFC49A0895C4986F
:100450008FB9779BFECFC49A08958FE085BF80EC5B
:100460008BBF089519BE1DBC1CBC84E08EBD81E00D
:1004700089BF12BE85E083BF08951EBC1DBC1CBC95
:100480008091B7039091B80397BD86BD8091C40356
:100490009091C5039BBD8ABD82E88FBD8AE18EBD68
:1004A0000895CF93DF931092C7038091E5038136BF
:1004B000E1F46091E80370E0605D74418091E703CE
:1004C0002AE0829FC0011124680F791F8091E60302
:1004D00024E6829FC0011124680F791F7093C10325
:1004E0006093C00384E20E94F3008091E5038336A9
:1004F00009F081C080E390E00E94A00480E390E0D6
:100500000E94A0048091BA03882319F481E390E04B
:1005100002C080E390E00E94A00480E390E00E948B
:10052000A00480E390E00E94A0048091BB03882394
:1005300019F481E390E002C080E390E00E94A004FF
:1005400080E390E00E94A00480E390E00E94A00479
:100550008091BC03882319F481E390E002C080E31A
:1005600090E00E94A00480E390E00E94A00480E359
:1005700090E00E94A0048091BD03882319F481E3D8
:1005800090E002C080E390E00E94A00480E390E04D
:100590000E94A00480E390E00E94A0048091BE032A
:1005A000882319F481E390E002C080E390E00E9488
:1005B000A0048091C0039091C1030E9483040E9413
:1005C000F00490E00E9483040E94F2000E94FB0469
:1005D00090E00E9483040E94060590E00E9483043C
:1005E0000E941E0590E00E9483040E94F2000E9477
:1005F000F2000E94F2008091E503863709F06EC098
:1006000080E690E00E94A40480E090E00E948304D1
:1006100081E090E00E9483048091B50390E00E9405
:10062000A0048091B60390E00E94A00485E690E0CB
:100630000E94A40489E990E00E94A4048EED90E059
:100640000E94A4048FE091E00E94A40480E491E061
:100650000E94A40484E791E00E94A40483EA91E04C
:100660000E94A40482ED91E00E94A4048FEF91E027
:100670000E94A4048CE292E00E94A40489E592E026
:100680000E94A40486E892E00E94A4048CE992E00F
:100690000E94A40482EB92E00E94A40488EC92E001
:1006A0000E94A4048EED92E00E94A40484EF92E0E4
:1006B0000E94A40484E293E00E94A40485E493E0F1
:1006C0000E94A40489E593E00E94A4048DE693E0CF
:1006D0000E94A40481E993E00E94A4048091E503B0
:1006E000843649F48091E6030E94E60490E0845B3E
:1006F00090400E94A0048091E503853629F484E2AD
:100700006091E6030E94F3008091E503893609F4C5
:1007100052C08A3631F48091BB03813009F065C044
:1007200036C08B3651F48091BC03813009F070C023
:100730009598969A1092BC035DC0843781F480919D
:10074000BD03813021F4939A1092BD03AAC088237F
:1007500009F0A7C0939881E08093BD03A2C08537BC
:1007600081F48091BE03813021F4979A1092BE03E8
:1007700098C0882309F095C0979881E08093BE03C4
:1007800090C08D3691F48091BB03813029F4969806
:10079000959A1092BB0341C0882309F082C09598B6
:1007A000969A81E08093BB0330C08236C9F5809170
:1007B000E603813381F48091BA03813021F4949A65
:1007C0001092BA036EC0882309F06BC0949881E040
:1007D0008093BA0366C0823381F48091BB03813079
:1007E00021F4959A1092BB035CC0882309F059C08C
:1007F000959881E08093BB0354C0833309F051C0C6
:100800008091BC03813021F4969A1092BC0349C0B8
:10081000882309F046C0969881E08093BC0341C0CC
:100820008E36D9F4C091C403D091C503E091B703CB
:10083000F091B803CF016FEF70E00E9446059B0175
:10084000CF01861B970BC817D90708F52C0F3D1F42
:100850003093C5032093C4031EC08F3611F5E09179
:10086000C403F091C5038091B7039091B8036FEF73
:1008700070E00E944605CB010A968E179F0728F06C
:100880001092C5031092C40306C0E61BF70BF09349
:10089000C503E093C4038091C4039091C5039BBD3D
:1008A0008ABDDF91CF91089511BA88EF81BB12BA4A
:1008B00080EB87BB8FEF88BB1ABA89E190E00E947A
:1008C000790480E060E00E94F3000E94BA048FE0A7
:1008D00085BF80EC8BBF0E94320278940E94F200A8
:1008E0008091C7038130D1F71092C7030E94510253
:1008F000F5CF90BD89B988E98AB9089590BD89B9C5
:1009000088E18AB90895282F64E60E943A05392FB4
:10091000822F0E943A05805D5D9BFECF8CB9832FAC
:100920006AE00E943A05292F832F0E943A05805DD4
:100930005D9BFECF8CB95D9BFECF205D2CB90895E9
:100940005D9BFECF8CB90895FC0104C05D9BFECF7A
:100950008CB9319680818823C9F75D9BFECF8AE0F0
:100960008CB95D9BFECF8DE08CB908955F9BFECF67
:100970008CB10895379A369A359880B78F7780BFB3
:1009800080B78F7B80BF80B78F7D80BF32983198D2
:1009900030983D9A3C983B983A9839983898089501
:1009A000379A369A359A80B78F7780BF80B78F7B1A
:1009B00080BF80B78F7D80BF3298319830983D9846
:1009C0003C983B983A9839983898089517B88770AA
:1009D00087B93D9A349A369A349BFECF85B10895F3
:1009E00017B8389839983A983D9A349A369A349B81
:1009F000FECF85B1089517B8389A39983A983D9A3C
:100A0000349A369A349BFECF85B1089517B8349B3B
:100A1000FECF3898399A3A983D9A349A369A349B50
:100A2000FECF85B1089517B8389A399A3A983D9A09
:100A3000349A369A349BFECF85B1089517B838980A
:100A400039983A9A3D9A349A369A349BFECF85B1BA
:100A5000089517B8877087B93D98349A349BFECFB4
:100A600085B190E00E94830484B190E00E948304E9
:100A700085B10895991B79E004C0991F961708F075
:100A8000961B881F7A95C9F780950895AA1BBB1BF2
:100A900051E107C0AA1FBB1FA617B70710F0A61B7E
:100AA000B70B881F991F5A95A9F780959095BC019F
:080AB000CD010895F894FFCF79
:100AB8005665723A004441435F434F4D4D414E44A1
:100AC8000909276127096120666F6C6C6F77656477
:100AD80020627920336E756D6265727320666F725D
:100AE8002074686520444143005455524E5F4F4E70
:100AF8005F4F46465F50494E2009276227095541F6
:100B080052545F52785F4275665B315D3D4F4E2FA0
:100B18004F464620554152545F52785F4275665B96
:100B2800325D3D50494E204E554D4245520052458A
:100B38005455524E5F56414C55455320092763275B
:100B48000952657475726E2076616C7565207374D0
:100B58006F72656420696E2042756666657200472B
:100B680045545F4144435F56414C5545200927642D
:100B7800270952657475726E204144432076616C72
:100B88007565206F6E2070696E20676976656E00E6
:100B98004441435F5345545F56414C55452009270E
:100BA800652709536574207468652044414320769D
:100BB800616C7565207573696E67206F6E6520427C
:100BC80079746500494E435F4441435F56414C5533
:100BD800453130200927662720496E6372656D65A7
:100BE8006E74204441432056616C756520627920FB
:100BF8003130004445435F4441435F56414C5545BD
:100C0800313020092767270944656372656D656E71
:100C180074204441432056616C7565206279203107
:100C28003000494E435F4441435F56414C5545357A
:100C3800200927702709496E6372656D656E7420F7
:100C48004441432056616C75652062792035004423
:100C580045435F4441435F56414C5545352009277C
:100C680071270944656372656D656E74204441435C
:100C78002056616C7565206279203500494E435FC6
:100C88004441435F56414C55453120092772270995
:100C9800496E6372656D656E7420444143205661E8
:100CA8006C75652062792031004445435F444143B7
:100CB8005F56414C55453120092773270944656320
:100CC80072656D656E74204441432056616C75658C
:100CD800206279203100544F4747454C4520504900
:100CE8004E3120092769270950443400544F47479B
:100CF800454C452050494E322009276A270950445F
:100D08003500544F4747454C452050494E3320093C
:100D1800276B270950443600544F4747454C452018
:100D280050494E3420092774270950443300544F42
:100D38004747454C452050494E3520092775270916
:100D4800504437004745545F56455253494F4E204B
:100D580009092776270952657475726E20566572DF
:100D680073696F6E206E72206F66206669726D7788
:100D780061726500544F47474C452050494E322018
:100D8800414E44205455524E204F462050494E3330
:100D980020276D2700494E435F4441435F56414C2D
:100DA8005545322009276827004445435F4441439D
:100DB8005F56414C5545322009276C2700494E4360
:100DC8005F50574D20090909276E2720696E637205
:100DD800656173652070756C7365207769647468E4
:100DE800004445435F50574D20090909276F2720C4
:100DF80064656372656173652070756C73652077CF
:100E080069647468000A0DE204040101010101002B
:00000001FF
