:100000000C942A000C9447000C9447000C94470071
:100010000C9447000C9447000C9447000C94470044
:100020000C9447000C9449000C9447000C94730006
:100030000C9447000C9447000C9447000C94470024
:100040000C9447000C9447000C9447000C94470014
:100050000C94470011241FBECFE5D4E0DEBFCDBF16
:1000600012E0A0E6B0E0EEEDF9E002C005900D92DE
:10007000AC37B107D9F712E0ACE7B2E001C01D928E
:10008000AC39B107E1F70E94AD030C94ED040C9478
:1000900000001F920F920FB60F9211248F939F931F
:1000A00080917E0290917F02019690937F028093CF
:1000B0007E0280917E0290917F02C29768F010923A
:1000C0007F0210927E02109283021092810210929F
:1000D000820281E0809380029F918F910F900FBEEA
:1000E0000F901F9018951F920F920FB60F92112428
:1000F0002F938F939F93EF93FF932CB110927F02D6
:1001000010927E0280918302882391F5223651F16C
:100110002336C1F02334B1F02E36A1F02F3691F002
:10012000293481F0293671F02A3661F02B3651F0EE
:10013000243741F0253731F0273721F0263711F0E9
:100140002D3621F481E080937B0210C0213611F41A
:1001500084E009C0263511F486E005C0243611F08C
:10016000253631F482E080937B0281E08093830224
:10017000809183028823C1F0E0918102F0E0E15791
:10018000FD4F2083809181028F5F80938102909147
:10019000810280917B02981738F0109283021092AE
:1001A000810281E080938202283731F41092830229
:1001B0001092810210928202FF91EF919F918F9194
:1001C0002F910F900FBE0F901F901895E199FECFC1
:1001D0009FBB8EBBE09A8DB30895E199FECF9FBB84
:1001E0008EBB6DBBE29AE19A08950895EF92FF925B
:1001F0000F931F93DF93CF9300D0CDB7DEB78983E2
:100200006A83C49807E010E07E010894E11CF11CA9
:10021000F701808190E0002E02C0959587950A94A1
:10022000E2F780FF02C0C59A01C0C598C7980E9436
:10023000F500C79A0E94F50001501040FFEF0F3FF4
:100240001F0731F707E010E082E0E82EF12CEC0EFA
:10025000FD1EF701808190E0002E02C095958795E4
:100260000A94E2F780FF02C0C59A01C0C598C798FA
:100270000E94F500C79A0E94F50001501040FFEF60
:100280000F3F1F0731F70E94F500C49A0F900F909F
:10029000CF91DF911F910F91FF90EF90089580EB28
:1002A00087BB80E58DB90895C4988FB9779BFECF41
:1002B0006FB9779BFECFC49A0895C4988FB9779B86
:1002C000FECFC49A089519BE1DBC1CBC84E08EBD2F
:1002D00081E089BF12BE85E083BF08951EBC1DBCAE
:1002E0001CBC8091790290917A0297BD86BD809165
:1002F0007702909178029BBD8ABD99BD88BD82EA44
:100300008FBD89E18EBD0895CF93DF931092820255
:1003100080918F02813631F5809192022091910275
:100320004091900290E0805D94416AE0269F9001A8
:100330001124820F931F24E6429FA0011124840FF1
:10034000951F90937D0280937C02813A910530F055
:1003500080EA90E090937D0280937C0280E260913D
:100360007C020EC180918F02863509F5F894609168
:10037000900282E090E00E94ED006091910283E0A3
:1003800090E00E94ED006091920284E090E00E9473
:10039000ED006091930285E090E00E94ED00609195
:1003A000940286E090E00E94ED007894D3C18091A1
:1003B0008F02833609F4CEC180918F028334C1F558
:1003C00080E490E00E941C0484E892E068E070E021
:1003D0000E94EE0381E490E00E941C0482E490E01D
:1003E0000E941C0483E490E00E941C040E94B2045A
:1003F00090E00E94FF0380917C0290917D020E9418
:10040000FF030E94A60490E00E94FF030E948A045A
:1004100090E00E94FF030E94980490E00E94FF0376
:100420000E946E0490E00E94FF030E94F50092C1BA
:1004300080918F02863709F08EC080E690E00E949E
:10044000200480E090E00E94FF0387E090E00E949B
:10045000FF038091750290E00E941C048091760257
:1004600090E00E941C0485E690E00E94200489E947
:1004700090E00E9420048EED90E00E9420048FE026
:1004800091E00E94200480E491E00E94200486E52F
:1004900091E00E9420048CE691E00E94200482E812
:1004A00091E00E94200488E991E00E9420048EEAF5
:1004B00091E00E9420048EED91E00E9420048FEFD5
:1004C00091E00E94200483E192E00E94200487E2F0
:1004D00092E00E9420048BE492E00E942004E199C3
:1004E000FECF82E090E09FBB8EBBE09A8DB390E0A0
:1004F0000E941C04E199FECF83E090E09FBB8EBB7D
:10050000E09A8DB390E00E941C04E199FECF84E054
:1005100090E09FBB8EBBE09A8DB390E00E941C04DC
:10052000E199FECF85E090E09FBB8EBBE09A8DB352
:1005300090E00E941C04E199FECF86E090E09FBB12
:100540008EBBE09A8DB390E00E941C048FE692E08F
:100550000E942004FFC080918F02843651F4809164
:1005600090020E94640490E0845B90400E941C040E
:10057000F1C080918F02853631F46091900280E263
:100580000E94F600E7C080918F02893679F480914D
:100590008402882329F4A99A81E080938402DAC036
:1005A00080918402813009F0D5C004C080918F020F
:1005B000893421F4A99810928402CCC080918F02D2
:1005C0008A3661F480918502882309F468C080919D
:1005D0008502813009F0BEC0AA980DC080918F02BB
:1005E0008B3699F480918602882341F4AA98AB9ABD
:1005F00081E08093860210928502ACC080918602D1
:10060000813009F0A7C0AB984FC080918F0284372A
:1006100091F480918702882329F4A89A81E080933D
:10062000870298C080918702813009F093C0A89812
:10063000109287028FC080918F02853791F480914C
:100640008802882329F4AC9A81E08093880282C0D2
:1006500080918802813009F07DC0AC9810928802A8
:1006600079C080918F02873791F480918902882325
:1006700029F4AD9A81E0809389026CC0809189024F
:10068000813009F067C0AD981092890263C08091F3
:100690008F028D36C1F480918502882341F4AB9896
:1006A000AA9A81E0809385021092860253C08091BD
:1006B0008502813009F04EC0AA98AB9A109285024B
:1006C0008093860247C080918F028E36D9F4C09104
:1006D0007702D0917802E0917902F0917A02CF010D
:1006E0006FEF70E00E94D9049B01CF01861B970B2E
:1006F000C817D90718F52C0F3D1F309378022093A7
:10070000770220C080918F028F3621F5E091770229
:10071000F09178028091790290917A026FEF70E007
:100720000E94D904CB010A968E179F0728F01092D9
:1007300078021092770206C0E61BF70BF09378025E
:10074000E093770280917702909178029BBD8ABDF9
:1007500099BD88BDDF91CF91089588EF81BB12BA12
:100760009FEF94BB15BA80EB87BB98BB1ABA89E19F
:1007700090E00E94E40380E060E00E94F6000E94A6
:1007800036040E9463010E946E0178940E94F50075
:1007900080918202813021F4109282020E948401B1
:1007A00080918402813019F4AD9810928902809171
:1007B0008002813059F710928002AA98AB9810926B
:1007C000850210928602E2CF90BD89B988E98AB984
:1007D000089590BD89B988E18AB9089520E030E094
:1007E00070E009C0FC01E20FF31FE0815D9BFECFCA
:1007F000ECB92F5F3F4F26173707A4F30895282F32
:1008000064E60E94CD04392F822F0E94CD04805DC2
:100810005D9BFECF8CB9832F6AE00E94CD04282F08
:10082000205D832F0E94CD045D9BFECF2CB95D9B84
:10083000FECF905D9CB908955D9BFECF8CB9089565
:10084000FC0104C05D9BFECF8CB93196808188236A
:10085000C9F75D9BFECF8AE08CB95D9BFECF8DE032
:100860008CB908955F9BFECF8CB10895379A369A64
:10087000359880B78F7780BF80B78F7B80BF80B778
:100880008F7D80BF3298319830983E9A3D9A3C983F
:100890003B983A98399838980895379A369A359A05
:1008A00080B78F7780BF80B78F7B80BF80B78F7D09
:1008B00080BF3298319830983E9A3D983C983B984A
:1008C0003A9839983898089517B8877087B93D9A3B
:1008D000349A369A349BFECF85B1089517B8349B6D
:1008E000FECF3E9A389839983A9A3D9A349A369A79
:1008F000349BFECF85B1089517B8349BFECF3E9A46
:10090000389839983A983D9A349A369A349BFECF63
:1009100085B1089517B8349BFECF3E9A389A39981E
:100920003A983D9A349A369A349BFECF85B1089511
:1009300017B8349BFECF3E9A3898399A3A983D9A28
:10094000349A369A349BFECF85B1089517B83E9AF3
:10095000389A399A3A983D9A349A369A349BFECF0F
:1009600085B1089517B83E9A389A39983A9A3D9ABF
:10097000349A369A349BFECF85B1089517B88770A4
:1009800087B93D98349A349BFECF85B10E94FF030E
:1009900084B10E94FF0385B10895991B79E004C0DA
:1009A000991F961708F0961B881F7A95C9F78095AE
:1009B0000895AA1BBB1B51E107C0AA1FBB1FA617A6
:1009C000B70710F0A61BB70B881F991F5A95A9F7F8
:0E09D00080959095BC01CD010895F894FFCF5D
:1009DE005665723A004441435F434F4D4D414E447C
:1009EE000909276127096120666F6C6C6F77656452
:1009FE0020627920336E756D6265727320666F7238
:100A0E002074686520444143005455524E5F4F4E4A
:100A1E005F4F46465F50494E2009276227095541D0
:100A2E0052545F52785F4275665B315D3D4F4E2F7B
:100A3E004F464620554152545F52785F4275665B71
:100A4E00325D3D50494E204E554D42455200524565
:100A5E005455524E5F56414C554553200927632736
:100A6E000952657475726E2076616C7565207374AB
:100A7E006F72656420696E20427566666572004706
:100A8E0045545F4144435F56414C55452009276408
:100A9E00270952657475726E204144432076616C4D
:100AAE007565206F6E2070696E20676976656E00C1
:100ABE00544F4747454C452050494E312009276930
:100ACE00270950433000544F4747454C4520504965
:100ADE004E322009276A270950443500544F4747A4
:100AEE00454C452050494E332009276B2709504469
:100AFE003600544F4747454C452050494E34200947
:100B0E002774270950443300544F4747454C45201E
:100B1E0050494E352009277527095044370047455F
:100B2E00545F56455253494F4E20090927762709DF
:100B3E0052657475726E2056657273696F6E206E93
:100B4E0072206F66206669726D7761726500544F10
:100B5E0047474C452050494E3220414E4420545573
:100B6E00524E204F462050494E3320276D270049C4
:100B7E004E435F4441435F56414C55453220092751
:100B8E006827004445435F4441435F56414C5545F9
:100B9E00322009276C2700494E435F50574D2009DC
:100BAE000909276E2720696E63726561736520706F
:100BBE00756C7365207769647468004445435F50B3
:100BCE00574D20090909276F2720646563726561F7
:100BDE0073652070756C7365207769647468002A7C
:0C0BEE002A2A2A2A000A0DC800900104DF
:00000001FF
