:100000000C942A000C946F000C94AD000C944700E3
:100010000C9447000C9447000C9447000C94470044
:100020000C9447000C9449000C9447000C945B011D
:100030000C9447000C9447000C9447000C94470024
:100040000C9447000C9447000C9447000C94470014
:100050000C94470011241FBECFE5D4E0DEBFCDBF16
:1000600013E0A0E6B0E0EAE5FBE002C005900D92E7
:10007000A63CB107D9F713E0A6ECB3E001C01D928E
:10008000A83FB107E1F70E94A5040C94AB050C94BE
:1000900000001F920F920FB60F9211248F939F931F
:1000A0008091C8039091C90301969093C9038093EE
:1000B000C8038436910560F01BBC1ABC1092C903BA
:1000C0001092C8031092CE031092CC031092CD036D
:1000D0009F918F910F900FBE0F901F9018951F92B8
:1000E0000F920FB60F9211248F939F93EF93FF936C
:1000F0008091D703813069F482B78093CF03109247
:10010000D00312BE8093DE031092D70385B78E7F93
:100110001AC08823C9F492B79093D1031092D203E6
:100120008091E503E82FF0E0E752FC4F90838F5F6A
:100130008093E503853010F01092E50381E0809311
:10014000D70385B7816085BFFF91EF919F918F9114
:100150000F900FBE0F901F9018951F920F920FB621
:100160000F9211242F933F938F939F93EF93FF93BD
:100170008091D803813079F48CB59DB59093D403E8
:100180008093D3031DBC1CBC8093E4031092D8035E
:1001900085B78B7F1BC08823D1F42CB53DB5309338
:1001A000D6032093D5038091E603E82FF0E0E152D7
:1001B000FC4F20838F5F8093E603853010F0109210
:1001C000E60381E08093D80385B7846085BFFF9103
:1001D000EF919F918F913F912F910F900FBE0F90B4
:1001E0001F901895E199FECF9FBB8EBBE09A8DB30F
:1001F0000895E199FECF9FBB8EBB6DBBE29AE19A59
:1002000008950895EF92FF920F931F93DF93CF937A
:1002100000D0CDB7DEB789836A83C49807E010E0C9
:100220007E010894E11CF11CF701808190E0002E12
:1002300002C0959587950A94E2F780FF02C0C59A9F
:1002400001C0C598C7980E940101C79A0E94010188
:1002500001501040FFEF0F3F1F0731F707E010E09C
:1002600082E0E82EF12CEC0EFD1EF701808190E07B
:10027000002E02C0959587950A94E2F780FF02C090
:10028000C59A01C0C598C7980E940101C79A0E94EB
:10029000010101501040FFEF0F3F1F0731F70E948F
:1002A0000101C49A0F900F90CF91DF911F910F9190
:1002B000FF90EF9008951F920F920FB60F921124A6
:1002C0001F932F933F934F935F936F937F938F93DE
:1002D0009F93AF93BF93EF93FF931CB11092C90309
:1002E0001092C8038091CE03882309F082C0123691
:1002F00031F1133631F481E08093BF038093CE0354
:1003000078C01E36C1F31F36B1F31936A1F31A3681
:1003100091F31B3681F3143771F3153761F31637F8
:1003200051F31D3641F3113611F484E009C016353E
:1003300011F486E005C0143611F0153629F482E078
:100340008093BF0381E0DACF183621F01C3669F0C4
:10035000163649F48091C6039091C703853F9105F5
:1003600060F50A963DC0173649F48091C603909116
:10037000C7038A30910570F10A9732C0103749F4EB
:100380008091C6039091C7038B3F9105B0F4059609
:1003900027C0113749F48091C6039091C703853077
:1003A0009105C0F005971CC0123761F48091C60317
:1003B0009091C7038F3F910518F08FEF90E010C028
:1003C00001960EC01337A9F48091C6039091C7031C
:1003D000009729F41092C7031092C60305C0019735
:1003E0009093C7038093C60384E26091C6030E9482
:1003F00002018091CE038823A9F08091CC03E82FDD
:10040000F0E0E551FC4F10838F5F8093CC03909117
:10041000BF03891738F01092CE031092CC0381E00D
:100420008093CD03183731F41092CE031092CC0391
:100430001092CD03FF91EF91BF91AF919F918F915A
:100440007F916F915F914F913F912F911F910F90ED
:100450000FBE0F901F90189580EB87BB80E58DB97C
:100460000895C4988FB9779BFECF6FB9779BFECF65
:10047000C49A0895C4988FB9779BFECFC49A089503
:100480008FE085BF80EC8BBF089519BE1DBC1CBCDE
:1004900084E08EBD81E089BF12BE85E083BF0895F0
:1004A0001EBC1DBC1CBC8091BD039091BE0397BDBA
:1004B00086BD8091CA039091CB039BBD8ABD82E823
:1004C0008FBD8AE18EBD0895CF93DF931092CD0347
:1004D0008091EB038136D9F46091EE0370E0605DAA
:1004E00074418091ED032AE0829FC0011124680FBE
:1004F000791F8091EC0324E6829FC0011124680FCC
:10050000791F7093C7036093C60384E23AC18635AE
:1005100009F5F89482E090E06091EC030E94F90004
:1005200083E090E06091ED030E94F90084E090E0A8
:100530006091EE030E94F90085E090E06091EF0386
:100540000E94F90086E090E06091F0030E94F900BB
:100550007894F8C1833609F056C020E030E08091ED
:10056000C003882311F421E030E0C9010E94D404C3
:1005700020E030E08091C103882311F421E030E0D5
:10058000C9010E94D40420E030E08091C203882396
:1005900011F421E030E0C9010E94D40420E030E0F1
:1005A0008091C303882311F421E030E0C9010E9447
:1005B000D40420E030E08091C403882311F421E0CA
:1005C00030E0C9010E94D4048091C6039091C70312
:1005D0000E94D4040E94410590E00E94D4040E942D
:1005E00001010E944C0590E00E94D4040E9457052E
:1005F00090E00E94D4040E946F0590E00E94D40411
:100600000E9401019FC1863709F0AAC080E690E0F0
:100610000E94F50480E090E00E94D40482E090E023
:100620000E94D4048091BB0390E00E94F104809169
:10063000BC0390E00E94F10485E690E00E94F5047E
:1006400089E990E00E94F5048EED90E00E94F504A7
:100650008FE091E00E94F50480E491E00E94F504AF
:1006600084E791E00E94F50483EA91E00E94F5049A
:1006700082ED91E00E94F5048FEF91E00E94F50475
:100680008CE292E00E94F50489E592E00E94F50474
:1006900086E892E00E94F5048CE992E00E94F5045D
:1006A00082EB92E00E94F50488EC92E00E94F5044F
:1006B0008EED92E00E94F50484EF92E00E94F50432
:1006C00084E293E00E94F50485E493E00E94F5043F
:1006D00089E593E00E94F5048DE693E00E94F5041D
:1006E00081E993E00E94F504E199FECF82E090E079
:1006F0009FBB8EBBE09A8DB390E00E94F104E1991C
:10070000FECF83E090E09FBB8EBBE09A8DB390E07C
:100710000E94F104E199FECF84E090E09FBB8EBB84
:10072000E09A8DB390E00E94F104E199FECF85E05C
:1007300090E09FBB8EBBE09A8DB390E00E94F104E5
:10074000E199FECF86E090E09FBB8EBBE09A8DB32F
:1007500090E00E94F10485EB93E00E94F504F2C062
:10076000843651F48091EC030E94370590E0845B5D
:1007700090400E94F104E6C0853631F484E2609135
:10078000EC030E940201DEC08936A1F48091C0030F
:10079000813021F4949A1092C00306C0882321F47A
:1007A000949881E08093C00382E090E061E40E942D
:1007B000F900C8C08A3631F48091C103813009F054
:1007C00067C038C08B3661F48091C203813009F074
:1007D00070C09598969A1092C2038093C103B2C0DC
:1007E000843781F48091C303813021F4939A10926D
:1007F000C303A8C0882309F0A5C0939881E0809323
:10080000C303A0C0853781F48091C403813021F4F3
:10081000979A1092C40396C0882309F093C09798C2
:1008200081E08093C4038EC08D3691F48091C10322
:10083000813029F49698959A1092C1033FC088237D
:1008400009F080C09598969A81E08093C1032EC0EC
:100850008236B9F58091EC03813381F48091C00335
:10086000813021F4949A1092C0036CC0882309F05F
:1008700069C0949881E08093C00364C0823371F4AE
:100880008091C103813021F4959A1092C1035AC01E
:10089000882309F057C0959881E09FCF833309F0F2
:1008A00051C08091C203813021F4969A1092C20304
:1008B00049C0882309F046C0969881E08093C2031E
:1008C00041C08E36D9F4C091CA03D091CB03E091D8
:1008D000BD03F091BE03CF016FEF70E00E9497055A
:1008E0009B01CF01861B970BC817D90708F52C0F62
:1008F0003D1F3093CB032093CA031EC08F3611F5E2
:10090000E091CA03F091CB038091BD039091BE03A7
:100910006FEF70E00E949705CB010A968E179F0734
:1009200028F01092CB031092CA0306C0E61BF70B07
:10093000F093CB03E093CA038091CA039091CB0359
:100940009BBD8ABDDF91CF91089511BA88EF81BB1D
:1009500012BA80EB87BB8FEF88BB1ABA89E190E0AF
:100960000E94CA0480E060E00E9402010E940B0520
:100970008FE085BF80EC8BBF0E94450278940E9477
:1009800001018091CD038130D1F71092CD030E94F7
:100990006402F5CF90BD89B988E98AB9089590BD00
:1009A00089B988E18AB90895282F64E60E948B05E9
:1009B000392F822F0E948B05805D5D9BFECF8CB905
:1009C000832F6AE00E948B05292F832F0E948B05BD
:1009D000805D5D9BFECF8CB95D9BFECF205D2CB909
:1009E00008955D9BFECF8CB90895FC0104C05D9B0A
:1009F000FECF8CB9319680818823C9F75D9BFECFED
:100A00008AE08CB95D9BFECF8DE08CB908955F9B29
:100A1000FECF8CB10895379A369A359880B78F7784
:100A200080BF80B78F7B80BF80B78F7D80BF3298BB
:100A3000319830983D9A3C983B983A983998389834
:100A40000895379A369A359A80B78F7780BF80B7E6
:100A50008F7B80BF80B78F7D80BF32983198309870
:100A60003D983C983B983A9839983898089517B82B
:100A7000877087B93D9A349A369A349BFECF85B1F8
:100A8000089517B8389839983A983D9A349A369A12
:100A9000349BFECF85B1089517B8389A39983A98A3
:100AA0003D9A349A369A349BFECF85B1089517B893
:100AB000349BFECF3898399A3A983D9A349A369AB0
:100AC000349BFECF85B1089517B8389A399A3A9871
:100AD0003D9A349A369A349BFECF85B1089517B863
:100AE000389839983A9A3D9A349A369A349BFECF80
:100AF00085B1089517B8877087B93D98349A349BAB
:100B0000FECF85B190E00E94D40484B190E00E94B1
:100B1000D40485B10895991B79E004C0991F9617F4
:100B200008F0961B881F7A95C9F780950895AA1B2F
:100B3000BB1B51E107C0AA1FBB1FA617B70710F0C8
:100B4000A61BB70B881F991F5A95A9F780959095FA
:0A0B5000BC01CD010895F894FFCF19
:100B5A005665723A004441435F434F4D4D414E44FE
:100B6A000909276127096120666F6C6C6F776564D4
:100B7A0020627920336E756D6265727320666F72BA
:100B8A002074686520444143005455524E5F4F4ECD
:100B9A005F4F46465F50494E200927622709554153
:100BAA0052545F52785F4275665B315D3D4F4E2FFE
:100BBA004F464620554152545F52785F4275665BF4
:100BCA00325D3D50494E204E554D424552005245E8
:100BDA005455524E5F56414C5545532009276327B9
:100BEA000952657475726E2076616C75652073742E
:100BFA006F72656420696E20427566666572004789
:100C0A0045545F4144435F56414C5545200927648A
:100C1A00270952657475726E204144432076616CCF
:100C2A007565206F6E2070696E20676976656E0043
:100C3A004441435F5345545F56414C55452009276B
:100C4A0065270953657420746865204441432076FA
:100C5A00616C7565207573696E67206F6E652042D9
:100C6A0079746500494E435F4441435F56414C5590
:100C7A00453130200927662720496E6372656D6504
:100C8A006E74204441432056616C75652062792058
:100C9A003130004445435F4441435F56414C55451A
:100CAA00313020092767270944656372656D656ECF
:100CBA0074204441432056616C7565206279203165
:100CCA003000494E435F4441435F56414C554535D8
:100CDA00200927702709496E6372656D656E742055
:100CEA004441432056616C75652062792035004481
:100CFA0045435F4441435F56414C554535200927DA
:100D0A0071270944656372656D656E7420444143B9
:100D1A002056616C7565206279203500494E435F23
:100D2A004441435F56414C554531200927722709F2
:100D3A00496E6372656D656E742044414320566145
:100D4A006C75652062792031004445435F44414314
:100D5A005F56414C5545312009277327094465637D
:100D6A0072656D656E74204441432056616C7565E9
:100D7A00206279203100544F4747454C452050495D
:100D8A004E3120092769270950443400544F4747F8
:100D9A00454C452050494E322009276A27095044BC
:100DAA003500544F4747454C452050494E3320099A
:100DBA00276B270950443600544F4747454C452076
:100DCA0050494E3420092774270950443300544FA0
:100DDA004747454C452050494E3520092775270974
:100DEA00504437004745545F56455253494F4E20A9
:100DFA0009092776270952657475726E205665723D
:100E0A0073696F6E206E72206F66206669726D77E5
:100E1A0061726500544F47474C452050494E322075
:100E2A00414E44205455524E204F462050494E338D
:100E3A0020276D2700494E435F4441435F56414C8A
:100E4A005545322009276827004445435F444143FA
:100E5A005F56414C5545322009276C2700494E43BD
:100E6A005F50574D20090909276E2720696E637262
:100E7A00656173652070756C736520776964746841
:100E8A00004445435F50574D20090909276F272021
:100E9A0064656372656173652070756C736520772C
:100EAA0069647468002A2A2A2A2A000A0DE20404BC
:060EBA000101010101002D
:00000001FF
