:100000000C942A000C946F000C94AD000C944700E3
:100010000C9447000C9447000C9447000C94470044
:100020000C9447000C9449000C9447000C94F20087
:100030000C9447000C9447000C9447000C94470024
:100040000C9447000C9447000C9447000C94470014
:100050000C94470011241FBECFE5D4E0DEBFCDBF16
:1000600012E0A0E6B0E0E0E6FAE002C005900D92F2
:10007000A038B107D9F712E0A0E8B2E001C01D92A4
:10008000A23BB107E1F70E941D040C942E050C94CD
:1000900000001F920F920FB60F9211248F939F931F
:1000A00080918202909183020196909383028093C3
:1000B00082028436910560F01BBC1ABC1092830248
:1000C0001092820210928802109286021092870289
:1000D0009F918F910F900FBE0F901F9018951F92B8
:1000E0000F920FB60F9211248F939F93EF93FF936C
:1000F00080919102813069F482B7809389021092D5
:100100008A0212BE809398021092910285B78E7F68
:100110001AC08823C9F492B790938B0210928C0274
:1001200080919F02E82FF0E0ED56FD4F90838F5FA6
:1001300080939F02853010F010929F0281E080939F
:10014000910285B7816085BFFF91EF919F918F915B
:100150000F900FBE0F901F9018951F920F920FB621
:100160000F9211242F933F938F939F93EF93FF93BD
:1001700080919202813079F48CB59DB590938E0276
:1001800080938D021DBC1CBC80939E021092920233
:1001900085B78B7F1BC08823D1F42CB53DB5309338
:1001A000900220938F028091A002E82FF0E0E756A2
:1001B000FD4F20838F5F8093A002853010F0109256
:1001C000A00281E08093920285B7846085BFFF9191
:1001D000EF919F918F913F912F910F900FBE0F90B4
:1001E0001F9018951F920F920FB60F9211242F9304
:1001F0008F939F93EF93FF932CB1109283021092F1
:10020000820280918802882371F5223631F12336EB
:10021000A1F02E3691F02F3681F0293671F0293475
:1002200061F02A3651F02B3641F0243731F0253772
:1002300021F0263711F02D3621F481E080937902E8
:1002400010C0213611F484E009C0263511F486E08F
:1002500005C0243611F0253631F482E0809379020E
:1002600081E080938802809188028823A9F08091A0
:100270008602E82FF0E0EB55FD4F20838F5F8093DF
:10028000860290917902891738F0109288021092B4
:10029000860281E080938702283731F41092880229
:1002A0001092860210928702FF91EF919F918F9199
:1002B0002F910F900FBE0F901F901895E199FECFD0
:1002C0009FBB8EBBE09A8DB30895E199FECF9FBB93
:1002D0008EBB6DBBE29AE19A08950895EF92FF926A
:1002E0000F931F93DF93CF9300D0CDB7DEB78983F1
:1002F0006A83C49807E010E07E010894E11CF11CB9
:10030000F701808190E0002E02C0959587950A94B0
:10031000E2F780FF02C0C59A01C0C598C7980E9445
:100320006D01C79A0E946D0101501040FFEF0F3F11
:100330001F0731F707E010E082E0E82EF12CEC0E09
:10034000FD1EF701808190E0002E02C095958795F3
:100350000A94E2F780FF02C0C59A01C0C598C79809
:100360000E946D01C79A0E946D0101501040FFEF7D
:100370000F3F1F0731F70E946D01C49A0F900F9035
:10038000CF91DF911F910F91FF90EF90089580EB37
:1003900087BB80E58DB90895C4988FB9779BFECF50
:1003A0006FB9779BFECFC49A0895C4988FB9779B95
:1003B000FECFC49A08958FE085BF80EC8BBF08956F
:1003C00019BE1DBC1CBC84E08EBD81E089BF12BE7D
:1003D00085E083BF08951EBC1DBC1CBC80917702C4
:1003E0009091780297BD86BD80918402909185029C
:1003F0009BBD8ABD82E88FBD8AE18EBD0895CF93F3
:10040000DF93109287028091A502813631F58091A9
:10041000A80290E0805D94412091A7024AE0249FC9
:1004200090011124820F931F2091A60244E6249F7D
:1004300090011124820F931F909381028093800278
:10044000813A910530F080EA90E0909381028093A8
:10045000800280E2609180021CC1863509F5F89423
:1004600082E090E06091A6020E94650183E090E046
:100470006091A7020E94650184E090E06091A8026B
:100480000E94650185E090E06091A9020E946501EB
:1004900086E090E06091AA020E9465017894CAC14A
:1004A000833609F054C020E030E080917A0288233E
:1004B00011F421E030E0C9010E944C0420E030E05A
:1004C00080917B02882311F421E030E0C9010E9471
:1004D0004C0420E030E080917C02882311F421E07C
:1004E00030E0C9010E944C0420E030E080917D02A0
:1004F000882311F421E030E0C9010E944C0420E07F
:1005000030E080917E02882311F421E030E0C901BF
:100510000E944C0480918002909181020E944C04C0
:100520000E94F30490E00E944C040E94D70490E0E3
:100530000E944C040E94E50490E00E944C040E943A
:10054000BB0490E00E944C040E946D0173C1863789
:1005500009F08EC080E690E00E946D0480E090E09B
:100560000E944C0485E090E00E944C04809175024A
:1005700090E00E9469048091760290E00E946904F4
:1005800085E690E00E946D0489E990E00E946D0488
:100590008EED90E00E946D048FE091E00E946D046A
:1005A00080E491E00E946D0486E591E00E946D0474
:1005B0008CE691E00E946D0482E891E00E946D0457
:1005C00088E991E00E946D048EEA91E00E946D043A
:1005D0008EED91E00E946D048FEF91E00E946D041A
:1005E00083E192E00E946D0487E292E00E946D0434
:1005F0008BE492E00E946D04E199FECF82E090E0EE
:100600009FBB8EBBE09A8DB390E00E946904E19994
:10061000FECF83E090E09FBB8EBBE09A8DB390E06D
:100620000E946904E199FECF84E090E09FBB8EBBFD
:10063000E09A8DB390E00E946904E199FECF85E0D5
:1006400090E09FBB8EBBE09A8DB390E00E9469045E
:10065000E199FECF86E090E09FBB8EBBE09A8DB320
:1006600090E00E9469048FE692E00E946D04E2C06F
:10067000843651F48091A6020E94B10490E0845B1C
:1006800090400E946904D6C0853631F480E26091C2
:10069000A6020E946E01CEC0893609F455C0893485
:1006A00009F45DC08A3631F480917B02813009F013
:1006B00065C036C08B3651F480917C02813009F0E0
:1006C00070C0AA98AB9A10927C025DC0843781F406
:1006D00080917D02813021F4A89A10927D02AAC0F7
:1006E000882309F0A7C0A89881E080937D02A2C06A
:1006F000853781F480917E02813021F4AC9A10928A
:100700007E0298C0882309F095C0AC9881E0809360
:100710007E0290C08D3691F480917B02813029F465
:10072000AB98AA9A10927B0241C0882309F082C03C
:10073000AA98AB9A81E080937B0230C08236C9F5DB
:100740008091A602813381F480917A02813021F474
:10075000A99A10927A026EC0882309F06BC0A998FA
:1007600081E080937A0266C0823381F480917B02BB
:10077000813021F4AA9A10927B025CC0882309F090
:1007800059C0AA9881E080937B0254C0833309F05A
:1007900051C080917C02813021F4AB9A10927C028E
:1007A00049C0882309F046C0AB9881E080937C0261
:1007B00041C08E36D9F4C0918402D0918502E09177
:1007C0007702F0917802CF016FEF70E00E941A0576
:1007D0009B01CF01861B970BC817D90708F52C0F73
:1007E0003D1F30938502209384021EC08F3611F581
:1007F000E0918402F09185028091770290917802D5
:100800006FEF70E00E941A05CB010A968E179F07C2
:1008100028F0109285021092840206C0E61BF70BA6
:10082000F0938502E0938402809184029091850286
:100830009BBD8ABDDF91CF91089511BA12BA9FEF87
:1008400094BB15BA80EB87BB98BB1ABA89E190E0DC
:100850000E94420480E060E00E946E010E948304D6
:100860008FE085BF80EC8BBF0E94E00178940E94EE
:100870006D01809187028130D1F7109287020E942A
:10088000FF01F5CF90BD89B988E98AB9089590BD77
:1008900089B988E18AB90895282F64E60E940E0577
:1008A000392F822F0E940E05805D5D9BFECF8CB993
:1008B000832F6AE00E940E05292F832F0E940E05C8
:1008C000805D5D9BFECF8CB95D9BFECF205D2CB91A
:1008D00008955D9BFECF8CB90895FC0104C05D9B1B
:1008E000FECF8CB9319680818823C9F75D9BFECFFE
:1008F0008AE08CB95D9BFECF8DE08CB908955F9B3B
:10090000FECF8CB10895379A369A359880B78F7795
:1009100080BF80B78F7B80BF80B78F7D80BF3298CC
:10092000319830983E9A3D9A3C983B983A9839983D
:1009300038980895379A369A359A80B78F7780BF5E
:1009400080B78F7B80BF80B78F7D80BF3298319812
:1009500030983E9A3D983C983B983A983998389808
:10096000089517B8877087B93D9A349A369A349BA0
:10097000FECF85B1089517B8349BFECF3E9A3898C4
:1009800039983A9A3D9A349A369A349BFECF85B17B
:10099000089517B8349BFECF3E9A389839983A9804
:1009A0003D9A349A369A349BFECF85B1089517B894
:1009B000349BFECF3E9A389A39983A983D9A349AA9
:1009C000369A349BFECF85B1089517B8349BFECF7D
:1009D0003E9A3898399A3A983D9A349A369A349B86
:1009E000FECF85B1089517B83E9A389A399A3A9849
:1009F0003D9A349A369A349BFECF85B1089517B844
:100A0000877087B93D98349A349BFECF85B10E9498
:100A10004C0484B10E944C0485B10895991B79E07F
:100A200004C0991F961708F0961B881F7A95C9F77E
:100A300080950895AA1BBB1B51E107C0AA1FBB1FCD
:100A4000A617B70710F0A61BB70B881F991F5A955A
:100A5000A9F780959095BC01CD010895F894FFCF3A
:100A60005665723A004441435F434F4D4D414E44F9
:100A70000909276127096120666F6C6C6F776564CF
:100A800020627920336E756D6265727320666F72B5
:100A90002074686520444143005455524E5F4F4EC8
:100AA0005F4F46465F50494E20092762270955414E
:100AB00052545F52785F4275665B315D3D4F4E2FF9
:100AC0004F464620554152545F52785F4275665BEF
:100AD000325D3D50494E204E554D424552005245E3
:100AE0005455524E5F56414C5545532009276327B4
:100AF0000952657475726E2076616C756520737429
:100B00006F72656420696E20427566666572004783
:100B100045545F4144435F56414C55452009276485
:100B2000270952657475726E204144432076616CCA
:100B30007565206F6E2070696E20676976656E003E
:100B4000544F4747454C452050494E3120092769AD
:100B5000270950433000544F4747454C45205049E2
:100B60004E322009276A270950443500544F474721
:100B7000454C452050494E332009276B27095044E6
:100B80003600544F4747454C452050494E342009C4
:100B90002774270950443300544F4747454C45209C
:100BA00050494E35200927752709504437004745DD
:100BB000545F56455253494F4E200909277627095D
:100BC00052657475726E2056657273696F6E206E11
:100BD00072206F66206669726D7761726500544F8E
:100BE00047474C452050494E3220414E44205455F1
:100BF000524E204F462050494E3320276D27004942
:100C00004E435F4441435F56414C554532200927CE
:100C10006827004445435F4441435F56414C554576
:100C2000322009276C2700494E435F50574D200959
:100C30000909276E2720696E6372656173652070EC
:100C4000756C7365207769647468004445435F5030
:100C5000574D20090909276F272064656372656174
:100C600073652070756C7365207769647468002AF9
:100C70002A2A2A2A000A0DE20404010101010100C6
:00000001FF
